{
  "_format": "hh-sol-artifact-1",
  "contractName": "AuditRegistry",
  "sourceName": "contracts/AuditRegistry.sol",
  "abi": [
    {
      "inputs": [],
      "stateMutability": "nonpayable",
      "type": "constructor"
    },
    {
      "inputs": [
        {
          "internalType": "address",
          "name": "owner",
          "type": "address"
        }
      ],
      "name": "OwnableInvalidOwner",
      "type": "error"
    },
    {
      "inputs": [
        {
          "internalType": "address",
          "name": "account",
          "type": "address"
        }
      ],
      "name": "OwnableUnauthorizedAccount",
      "type": "error"
    },
    {
      "anonymous": false,
      "inputs": [
        {
          "indexed": true,
          "internalType": "string",
          "name": "contractName",
          "type": "string"
        },
        {
          "indexed": false,
          "internalType": "uint8",
          "name": "riskScore",
          "type": "uint8"
        },
        {
          "indexed": true,
          "internalType": "address",
          "name": "auditor",
          "type": "address"
        },
        {
          "indexed": false,
          "internalType": "uint256",
          "name": "timestamp",
          "type": "uint256"
        },
        {
          "indexed": false,
          "internalType": "string",
          "name": "ipfsHash",
          "type": "string"
        }
      ],
      "name": "AuditSaved",
      "type": "event"
    },
    {
      "anonymous": false,
      "inputs": [
        {
          "indexed": true,
          "internalType": "string",
          "name": "contractName",
          "type": "string"
        },
        {
          "indexed": false,
          "internalType": "uint8",
          "name": "oldScore",
          "type": "uint8"
        },
        {
          "indexed": false,
          "internalType": "uint8",
          "name": "newScore",
          "type": "uint8"
        },
        {
          "indexed": true,
          "internalType": "address",
          "name": "auditor",
          "type": "address"
        },
        {
          "indexed": false,
          "internalType": "string",
          "name": "newIpfsHash",
          "type": "string"
        }
      ],
      "name": "AuditUpdated",
      "type": "event"
    },
    {
      "anonymous": false,
      "inputs": [
        {
          "indexed": true,
          "internalType": "address",
          "name": "previousOwner",
          "type": "address"
        },
        {
          "indexed": true,
          "internalType": "address",
          "name": "newOwner",
          "type": "address"
        }
      ],
      "name": "OwnershipTransferred",
      "type": "event"
    },
    {
      "inputs": [
        {
          "internalType": "address",
          "name": "_auditor",
          "type": "address"
        }
      ],
      "name": "addAuditor",
      "outputs": [],
      "stateMutability": "nonpayable",
      "type": "function"
    },
    {
      "inputs": [
        {
          "internalType": "uint256",
          "name": "",
          "type": "uint256"
        }
      ],
      "name": "auditedContractNames",
      "outputs": [
        {
          "internalType": "string",
          "name": "",
          "type": "string"
        }
      ],
      "stateMutability": "view",
      "type": "function"
    },
    {
      "inputs": [
        {
          "internalType": "string",
          "name": "",
          "type": "string"
        }
      ],
      "name": "audits",
      "outputs": [
        {
          "internalType": "string",
          "name": "contractName",
          "type": "string"
        },
        {
          "internalType": "uint8",
          "name": "riskScore",
          "type": "uint8"
        },
        {
          "internalType": "uint256",
          "name": "timestamp",
          "type": "uint256"
        },
        {
          "internalType": "address",
          "name": "auditor",
          "type": "address"
        },
        {
          "internalType": "string",
          "name": "ipfsHash",
          "type": "string"
        },
        {
          "internalType": "bool",
          "name": "exists",
          "type": "bool"
        }
      ],
      "stateMutability": "view",
      "type": "function"
    },
    {
      "inputs": [
        {
          "internalType": "address",
          "name": "",
          "type": "address"
        }
      ],
      "name": "authorizedAuditors",
      "outputs": [
        {
          "internalType": "bool",
          "name": "",
          "type": "bool"
        }
      ],
      "stateMutability": "view",
      "type": "function"
    },
    {
      "inputs": [],
      "name": "getAllAuditedContracts",
      "outputs": [
        {
          "internalType": "string[]",
          "name": "",
          "type": "string[]"
        }
      ],
      "stateMutability": "view",
      "type": "function"
    },
    {
      "inputs": [
        {
          "internalType": "string",
          "name": "_contractName",
          "type": "string"
        }
      ],
      "name": "getAudit",
      "outputs": [
        {
          "internalType": "uint8",
          "name": "riskScore",
          "type": "uint8"
        },
        {
          "internalType": "uint256",
          "name": "timestamp",
          "type": "uint256"
        },
        {
          "internalType": "address",
          "name": "auditor",
          "type": "address"
        },
        {
          "internalType": "string",
          "name": "ipfsHash",
          "type": "string"
        },
        {
          "internalType": "bool",
          "name": "exists",
          "type": "bool"
        }
      ],
      "stateMutability": "view",
      "type": "function"
    },
    {
      "inputs": [
        {
          "internalType": "string",
          "name": "_contractName",
          "type": "string"
        }
      ],
      "name": "getAuditReport",
      "outputs": [
        {
          "internalType": "string",
          "name": "",
          "type": "string"
        }
      ],
      "stateMutability": "view",
      "type": "function"
    },
    {
      "inputs": [
        {
          "internalType": "string[]",
          "name": "_contractNames",
          "type": "string[]"
        }
      ],
      "name": "getMultipleScores",
      "outputs": [
        {
          "internalType": "uint8[]",
          "name": "scores",
          "type": "uint8[]"
        },
        {
          "internalType": "bool[]",
          "name": "exists",
          "type": "bool[]"
        }
      ],
      "stateMutability": "view",
      "type": "function"
    },
    {
      "inputs": [
        {
          "internalType": "string",
          "name": "_contractName",
          "type": "string"
        }
      ],
      "name": "getRiskScore",
      "outputs": [
        {
          "internalType": "uint8",
          "name": "",
          "type": "uint8"
        }
      ],
      "stateMutability": "view",
      "type": "function"
    },
    {
      "inputs": [],
      "name": "getStats",
      "outputs": [
        {
          "internalType": "uint256",
          "name": "_totalAudits",
          "type": "uint256"
        },
        {
          "internalType": "uint256",
          "name": "_safeContracts",
          "type": "uint256"
        },
        {
          "internalType": "uint256",
          "name": "_riskyContracts",
          "type": "uint256"
        }
      ],
      "stateMutability": "view",
      "type": "function"
    },
    {
      "inputs": [
        {
          "internalType": "string",
          "name": "_contractName",
          "type": "string"
        }
      ],
      "name": "isAudited",
      "outputs": [
        {
          "internalType": "bool",
          "name": "",
          "type": "bool"
        }
      ],
      "stateMutability": "view",
      "type": "function"
    },
    {
      "inputs": [],
      "name": "owner",
      "outputs": [
        {
          "internalType": "address",
          "name": "",
          "type": "address"
        }
      ],
      "stateMutability": "view",
      "type": "function"
    },
    {
      "inputs": [
        {
          "internalType": "address",
          "name": "_auditor",
          "type": "address"
        }
      ],
      "name": "removeAuditor",
      "outputs": [],
      "stateMutability": "nonpayable",
      "type": "function"
    },
    {
      "inputs": [],
      "name": "renounceOwnership",
      "outputs": [],
      "stateMutability": "nonpayable",
      "type": "function"
    },
    {
      "inputs": [
        {
          "internalType": "string",
          "name": "_contractName",
          "type": "string"
        },
        {
          "internalType": "uint8",
          "name": "_riskScore",
          "type": "uint8"
        },
        {
          "internalType": "string",
          "name": "_ipfsHash",
          "type": "string"
        }
      ],
      "name": "saveAudit",
      "outputs": [],
      "stateMutability": "nonpayable",
      "type": "function"
    },
    {
      "inputs": [],
      "name": "totalAudits",
      "outputs": [
        {
          "internalType": "uint256",
          "name": "",
          "type": "uint256"
        }
      ],
      "stateMutability": "view",
      "type": "function"
    },
    {
      "inputs": [
        {
          "internalType": "address",
          "name": "newOwner",
          "type": "address"
        }
      ],
      "name": "transferOwnership",
      "outputs": [],
      "stateMutability": "nonpayable",
      "type": "function"
    }
  ],
  "bytecode": "0x608060405234801561001057600080fd5b5033600073ffffffffffffffffffffffffffffffffffffffff168173ffffffffffffffffffffffffffffffffffffffff16036100845760006040517f1e4fbdf700000000000000000000000000000000000000000000000000000000815260040161007b91906101f6565b60405180910390fd5b610093816100f160201b60201c565b506001600260003373ffffffffffffffffffffffffffffffffffffffff1673ffffffffffffffffffffffffffffffffffffffff16815260200190815260200160002060006101000a81548160ff021916908315150217905550610211565b60008060009054906101000a900473ffffffffffffffffffffffffffffffffffffffff169050816000806101000a81548173ffffffffffffffffffffffffffffffffffffffff021916908373ffffffffffffffffffffffffffffffffffffffff1602179055508173ffffffffffffffffffffffffffffffffffffffff168173ffffffffffffffffffffffffffffffffffffffff167f8be0079c531659141344cd1fd0a4f28419497f9722a3daafe3b4186f6b6457e060405160405180910390a35050565b600073ffffffffffffffffffffffffffffffffffffffff82169050919050565b60006101e0826101b5565b9050919050565b6101f0816101d5565b82525050565b600060208201905061020b60008301846101e7565b92915050565b6127ac806102206000396000f3fe608060405234801561001057600080fd5b506004361061010b5760003560e01c8063c0228501116100a2578063dc8f53b211610071578063dc8f53b2146102da578063dfa280961461030a578063e429cef11461033a578063e6116cfd14610356578063f2fde38b146103725761010b565b8063c022850114610239578063c477b0d414610269578063c59d484714610285578063d51b27b8146102a55761010b565b806365a06570116100de57806365a06570146101ad578063715018a6146101dd5780638da5cb5b146101e75780639e0a4940146102055761010b565b8063390d870f14610110578063445fb7c5146101405780634a07147f1461017157806357435fb91461018f575b600080fd5b61012a6004803603810190610125919061172b565b61038e565b60405161013791906117e8565b60405180910390f35b61015a60048036038101906101559190611a25565b61043a565b604051610168929190611c03565b60405180910390f35b61017961074e565b6040516101869190611c49565b60405180910390f35b610197610754565b6040516101a49190611d70565b60405180910390f35b6101c760048036038101906101c29190611d92565b61082d565b6040516101d49190611dea565b60405180910390f35b6101e5610865565b005b6101ef610879565b6040516101fc9190611e46565b60405180910390f35b61021f600480360381019061021a9190611d92565b6108a2565b604051610230959493929190611e70565b60405180910390f35b610253600480360381019061024e9190611ef6565b610ac0565b6040516102609190611dea565b60405180910390f35b610283600480360381019061027e9190611f4f565b610ae0565b005b61028d610f36565b60405161029c93929190611fda565b60405180910390f35b6102bf60048036038101906102ba9190611d92565b611070565b6040516102d196959493929190612011565b60405180910390f35b6102f460048036038101906102ef9190611d92565b61120c565b6040516103019190612080565b60405180910390f35b610324600480360381019061031f9190611d92565b6112b2565b60405161033191906117e8565b60405180910390f35b610354600480360381019061034f9190611ef6565b6113d3565b005b610370600480360381019061036b9190611ef6565b6114a5565b005b61038c60048036038101906103879190611ef6565b611508565b005b6003818154811061039e57600080fd5b9060005260206000200160009150905080546103b9906120ca565b80601f01602080910402602001604051908101604052809291908181526020018280546103e5906120ca565b80156104325780601f1061040757610100808354040283529160200191610432565b820191906000526020600020905b81548152906001019060200180831161041557829003601f168201915b505050505081565b606080825167ffffffffffffffff8111156104585761045761180f565b5b6040519080825280602002602001820160405280156104865781602001602082028036833780820191505090505b509150825167ffffffffffffffff8111156104a4576104a361180f565b5b6040519080825280602002602001820160405280156104d25781602001602082028036833780820191505090505b50905060005b835181101561074857600060018583815181106104f8576104f76120fb565b5b602002602001015160405161050d9190612166565b90815260200160405180910390206040518060c0016040529081600082018054610536906120ca565b80601f0160208091040260200160405190810160405280929190818152602001828054610562906120ca565b80156105af5780601f10610584576101008083540402835291602001916105af565b820191906000526020600020905b81548152906001019060200180831161059257829003601f168201915b505050505081526020016001820160009054906101000a900460ff1660ff1660ff168152602001600282015481526020016003820160009054906101000a900473ffffffffffffffffffffffffffffffffffffffff1673ffffffffffffffffffffffffffffffffffffffff1673ffffffffffffffffffffffffffffffffffffffff168152602001600482018054610645906120ca565b80601f0160208091040260200160405190810160405280929190818152602001828054610671906120ca565b80156106be5780601f10610693576101008083540402835291602001916106be565b820191906000526020600020905b8154815290600101906020018083116106a157829003601f168201915b505050505081526020016005820160009054906101000a900460ff161515151581525050905080602001518483815181106106fc576106fb6120fb565b5b602002602001019060ff16908160ff16815250508060a00151838381518110610728576107276120fb565b5b6020026020010190151590811515815250505080806001019150506104d8565b50915091565b60045481565b60606003805480602002602001604051908101604052809291908181526020016000905b82821015610824578382906000526020600020018054610797906120ca565b80601f01602080910402602001604051908101604052809291908181526020018280546107c3906120ca565b80156108105780601f106107e557610100808354040283529160200191610810565b820191906000526020600020905b8154815290600101906020018083116107f357829003601f168201915b505050505081526020019060010190610778565b50505050905090565b600060018260405161083f9190612166565b908152602001604051809103902060050160009054906101000a900460ff169050919050565b61086d61158e565b6108776000611615565b565b60008060009054906101000a900473ffffffffffffffffffffffffffffffffffffffff16905090565b600080600060606000806001876040516108bc9190612166565b90815260200160405180910390206040518060c00160405290816000820180546108e5906120ca565b80601f0160208091040260200160405190810160405280929190818152602001828054610911906120ca565b801561095e5780601f106109335761010080835404028352916020019161095e565b820191906000526020600020905b81548152906001019060200180831161094157829003601f168201915b505050505081526020016001820160009054906101000a900460ff1660ff1660ff168152602001600282015481526020016003820160009054906101000a900473ffffffffffffffffffffffffffffffffffffffff1673ffffffffffffffffffffffffffffffffffffffff1673ffffffffffffffffffffffffffffffffffffffff1681526020016004820180546109f4906120ca565b80601f0160208091040260200160405190810160405280929190818152602001828054610a20906120ca565b8015610a6d5780601f10610a4257610100808354040283529160200191610a6d565b820191906000526020600020905b815481529060010190602001808311610a5057829003601f168201915b505050505081526020016005820160009054906101000a900460ff161515151581525050905080602001518160400151826060015183608001518460a00151955095509550955095505091939590929450565b60026020528060005260406000206000915054906101000a900460ff1681565b600260003373ffffffffffffffffffffffffffffffffffffffff1673ffffffffffffffffffffffffffffffffffffffff16815260200190815260200160002060009054906101000a900460ff1680610b6a5750610b3b610879565b73ffffffffffffffffffffffffffffffffffffffff163373ffffffffffffffffffffffffffffffffffffffff16145b610ba9576040517f08c379a0000000000000000000000000000000000000000000000000000000008152600401610ba0906121c9565b60405180910390fd5b6000835111610bed576040517f08c379a0000000000000000000000000000000000000000000000000000000008152600401610be490612235565b60405180910390fd5b600a8260ff161115610c34576040517f08c379a0000000000000000000000000000000000000000000000000000000008152600401610c2b906122a1565b60405180910390fd5b6000815111610c78576040517f08c379a0000000000000000000000000000000000000000000000000000000008152600401610c6f9061230d565b60405180910390fd5b6000600184604051610c8a9190612166565b908152602001604051809103902060050160009054906101000a900460ff161590506000600185604051610cbe9190612166565b908152602001604051809103902060010160009054906101000a900460ff1690506040518060c001604052808681526020018560ff1681526020014281526020013373ffffffffffffffffffffffffffffffffffffffff16815260200184815260200160011515815250600186604051610d389190612166565b90815260200160405180910390206000820151816000019081610d5b91906124d9565b5060208201518160010160006101000a81548160ff021916908360ff1602179055506040820151816002015560608201518160030160006101000a81548173ffffffffffffffffffffffffffffffffffffffff021916908373ffffffffffffffffffffffffffffffffffffffff1602179055506080820151816004019081610de391906124d9565b5060a08201518160050160006101000a81548160ff0219169083151502179055509050508115610ec757600385908060018154018082558091505060019003906000526020600020016000909190919091509081610e4191906124d9565b5060046000815480929190610e55906125da565b91905055503373ffffffffffffffffffffffffffffffffffffffff1685604051610e7f9190612166565b60405180910390207fcf2f50e55b3397d2d4b18bd5bb5eadb6e884a5d1a000898b85d59a2560d5c222864287604051610eba93929190612622565b60405180910390a3610f2f565b3373ffffffffffffffffffffffffffffffffffffffff1685604051610eec9190612166565b60405180910390207e36d59c6e959e8ab1e4f9d879d9d5265870f8bc047e00d4cfa33529e1282f03838787604051610f2693929190612660565b60405180910390a35b5050505050565b6000806000600454925060005b60038054905081101561106a57600060038281548110610f6657610f656120fb565b5b906000526020600020018054610f7b906120ca565b80601f0160208091040260200160405190810160405280929190818152602001828054610fa7906120ca565b8015610ff45780601f10610fc957610100808354040283529160200191610ff4565b820191906000526020600020905b815481529060010190602001808311610fd757829003601f168201915b50505050509050600060018260405161100d9190612166565b908152602001604051809103902060010160009054906101000a900460ff16905060078160ff161061104c578480611044906125da565b95505061105b565b8380611057906125da565b9450505b50508080600101915050610f43565b50909192565b6001818051602081018201805184825260208301602085012081835280955050505050506000915090508060000180546110a9906120ca565b80601f01602080910402602001604051908101604052809291908181526020018280546110d5906120ca565b80156111225780601f106110f757610100808354040283529160200191611122565b820191906000526020600020905b81548152906001019060200180831161110557829003601f168201915b5050505050908060010160009054906101000a900460ff16908060020154908060030160009054906101000a900473ffffffffffffffffffffffffffffffffffffffff1690806004018054611176906120ca565b80601f01602080910402602001604051908101604052809291908181526020018280546111a2906120ca565b80156111ef5780601f106111c4576101008083540402835291602001916111ef565b820191906000526020600020905b8154815290600101906020018083116111d257829003601f168201915b5050505050908060050160009054906101000a900460ff16905086565b600060018260405161121e9190612166565b908152602001604051809103902060050160009054906101000a900460ff1661127c576040517f08c379a0000000000000000000000000000000000000000000000000000000008152600401611273906126ea565b60405180910390fd5b60018260405161128c9190612166565b908152602001604051809103902060010160009054906101000a900460ff169050919050565b60606001826040516112c49190612166565b908152602001604051809103902060050160009054906101000a900460ff16611322576040517f08c379a0000000000000000000000000000000000000000000000000000000008152600401611319906126ea565b60405180910390fd5b6001826040516113329190612166565b9081526020016040518091039020600401805461134e906120ca565b80601f016020809104026020016040519081016040528092919081815260200182805461137a906120ca565b80156113c75780601f1061139c576101008083540402835291602001916113c7565b820191906000526020600020905b8154815290600101906020018083116113aa57829003601f168201915b50505050509050919050565b6113db61158e565b600073ffffffffffffffffffffffffffffffffffffffff168173ffffffffffffffffffffffffffffffffffffffff160361144a576040517f08c379a000000000000000000000000000000000000000000000000000000000815260040161144190612756565b60405180910390fd5b6001600260008373ffffffffffffffffffffffffffffffffffffffff1673ffffffffffffffffffffffffffffffffffffffff16815260200190815260200160002060006101000a81548160ff02191690831515021790555050565b6114ad61158e565b6000600260008373ffffffffffffffffffffffffffffffffffffffff1673ffffffffffffffffffffffffffffffffffffffff16815260200190815260200160002060006101000a81548160ff02191690831515021790555050565b61151061158e565b600073ffffffffffffffffffffffffffffffffffffffff168173ffffffffffffffffffffffffffffffffffffffff16036115825760006040517f1e4fbdf70000000000000000000000000000000000000000000000000000000081526004016115799190611e46565b60405180910390fd5b61158b81611615565b50565b6115966116d9565b73ffffffffffffffffffffffffffffffffffffffff166115b4610879565b73ffffffffffffffffffffffffffffffffffffffff1614611613576115d76116d9565b6040517f118cdaa700000000000000000000000000000000000000000000000000000000815260040161160a9190611e46565b60405180910390fd5b565b60008060009054906101000a900473ffffffffffffffffffffffffffffffffffffffff169050816000806101000a81548173ffffffffffffffffffffffffffffffffffffffff021916908373ffffffffffffffffffffffffffffffffffffffff1602179055508173ffffffffffffffffffffffffffffffffffffffff168173ffffffffffffffffffffffffffffffffffffffff167f8be0079c531659141344cd1fd0a4f28419497f9722a3daafe3b4186f6b6457e060405160405180910390a35050565b600033905090565b6000604051905090565b600080fd5b600080fd5b6000819050919050565b611708816116f5565b811461171357600080fd5b50565b600081359050611725816116ff565b92915050565b600060208284031215611741576117406116eb565b5b600061174f84828501611716565b91505092915050565b600081519050919050565b600082825260208201905092915050565b60005b83811015611792578082015181840152602081019050611777565b60008484015250505050565b6000601f19601f8301169050919050565b60006117ba82611758565b6117c48185611763565b93506117d4818560208601611774565b6117dd8161179e565b840191505092915050565b6000602082019050818103600083015261180281846117af565b905092915050565b600080fd5b7f4e487b7100000000000000000000000000000000000000000000000000000000600052604160045260246000fd5b6118478261179e565b810181811067ffffffffffffffff821117156118665761186561180f565b5b80604052505050565b60006118796116e1565b9050611885828261183e565b919050565b600067ffffffffffffffff8211156118a5576118a461180f565b5b602082029050602081019050919050565b600080fd5b600080fd5b600067ffffffffffffffff8211156118db576118da61180f565b5b6118e48261179e565b9050602081019050919050565b82818337600083830152505050565b600061191361190e846118c0565b61186f565b90508281526020810184848401111561192f5761192e6118bb565b5b61193a8482856118f1565b509392505050565b600082601f8301126119575761195661180a565b5b8135611967848260208601611900565b91505092915050565b600061198361197e8461188a565b61186f565b905080838252602082019050602084028301858111156119a6576119a56118b6565b5b835b818110156119ed57803567ffffffffffffffff8111156119cb576119ca61180a565b5b8086016119d88982611942565b855260208501945050506020810190506119a8565b5050509392505050565b600082601f830112611a0c57611a0b61180a565b5b8135611a1c848260208601611970565b91505092915050565b600060208284031215611a3b57611a3a6116eb565b5b600082013567ffffffffffffffff811115611a5957611a586116f0565b5b611a65848285016119f7565b91505092915050565b600081519050919050565b600082825260208201905092915050565b6000819050602082019050919050565b600060ff82169050919050565b611ab081611a9a565b82525050565b6000611ac28383611aa7565b60208301905092915050565b6000602082019050919050565b6000611ae682611a6e565b611af08185611a79565b9350611afb83611a8a565b8060005b83811015611b2c578151611b138882611ab6565b9750611b1e83611ace565b925050600181019050611aff565b5085935050505092915050565b600081519050919050565b600082825260208201905092915050565b6000819050602082019050919050565b60008115159050919050565b611b7a81611b65565b82525050565b6000611b8c8383611b71565b60208301905092915050565b6000602082019050919050565b6000611bb082611b39565b611bba8185611b44565b9350611bc583611b55565b8060005b83811015611bf6578151611bdd8882611b80565b9750611be883611b98565b925050600181019050611bc9565b5085935050505092915050565b60006040820190508181036000830152611c1d8185611adb565b90508181036020830152611c318184611ba5565b90509392505050565b611c43816116f5565b82525050565b6000602082019050611c5e6000830184611c3a565b92915050565b600081519050919050565b600082825260208201905092915050565b6000819050602082019050919050565b600082825260208201905092915050565b6000611cac82611758565b611cb68185611c90565b9350611cc6818560208601611774565b611ccf8161179e565b840191505092915050565b6000611ce68383611ca1565b905092915050565b6000602082019050919050565b6000611d0682611c64565b611d108185611c6f565b935083602082028501611d2285611c80565b8060005b85811015611d5e5784840389528151611d3f8582611cda565b9450611d4a83611cee565b925060208a01995050600181019050611d26565b50829750879550505050505092915050565b60006020820190508181036000830152611d8a8184611cfb565b905092915050565b600060208284031215611da857611da76116eb565b5b600082013567ffffffffffffffff811115611dc657611dc56116f0565b5b611dd284828501611942565b91505092915050565b611de481611b65565b82525050565b6000602082019050611dff6000830184611ddb565b92915050565b600073ffffffffffffffffffffffffffffffffffffffff82169050919050565b6000611e3082611e05565b9050919050565b611e4081611e25565b82525050565b6000602082019050611e5b6000830184611e37565b92915050565b611e6a81611a9a565b82525050565b600060a082019050611e856000830188611e61565b611e926020830187611c3a565b611e9f6040830186611e37565b8181036060830152611eb181856117af565b9050611ec06080830184611ddb565b9695505050505050565b611ed381611e25565b8114611ede57600080fd5b50565b600081359050611ef081611eca565b92915050565b600060208284031215611f0c57611f0b6116eb565b5b6000611f1a84828501611ee1565b91505092915050565b611f2c81611a9a565b8114611f3757600080fd5b50565b600081359050611f4981611f23565b92915050565b600080600060608486031215611f6857611f676116eb565b5b600084013567ffffffffffffffff811115611f8657611f856116f0565b5b611f9286828701611942565b9350506020611fa386828701611f3a565b925050604084013567ffffffffffffffff811115611fc457611fc36116f0565b5b611fd086828701611942565b9150509250925092565b6000606082019050611fef6000830186611c3a565b611ffc6020830185611c3a565b6120096040830184611c3a565b949350505050565b600060c082019050818103600083015261202b81896117af565b905061203a6020830188611e61565b6120476040830187611c3a565b6120546060830186611e37565b818103608083015261206681856117af565b905061207560a0830184611ddb565b979650505050505050565b60006020820190506120956000830184611e61565b92915050565b7f4e487b7100000000000000000000000000000000000000000000000000000000600052602260045260246000fd5b600060028204905060018216806120e257607f821691505b6020821081036120f5576120f461209b565b5b50919050565b7f4e487b7100000000000000000000000000000000000000000000000000000000600052603260045260246000fd5b600081905092915050565b600061214082611758565b61214a818561212a565b935061215a818560208601611774565b80840191505092915050565b60006121728284612135565b915081905092915050565b7f4e6f7420617574686f72697a6564000000000000000000000000000000000000600082015250565b60006121b3600e83611763565b91506121be8261217d565b602082019050919050565b600060208201905081810360008301526121e2816121a6565b9050919050565b7f436f6e7472616374206e616d6520726571756972656400000000000000000000600082015250565b600061221f601683611763565b915061222a826121e9565b602082019050919050565b6000602082019050818103600083015261224e81612212565b9050919050565b7f53636f7265206d757374206265747765656e203020616e642031300000000000600082015250565b600061228b601b83611763565b915061229682612255565b602082019050919050565b600060208201905081810360008301526122ba8161227e565b9050919050565b7f4950465320686173682072657175697265640000000000000000000000000000600082015250565b60006122f7601283611763565b9150612302826122c1565b602082019050919050565b60006020820190508181036000830152612326816122ea565b9050919050565b60008190508160005260206000209050919050565b60006020601f8301049050919050565b600082821b905092915050565b60006008830261238f7fffffffffffffffffffffffffffffffffffffffffffffffffffffffffffffffff82612352565b6123998683612352565b95508019841693508086168417925050509392505050565b6000819050919050565b60006123d66123d16123cc846116f5565b6123b1565b6116f5565b9050919050565b6000819050919050565b6123f0836123bb565b6124046123fc826123dd565b84845461235f565b825550505050565b600090565b61241961240c565b6124248184846123e7565b505050565b5b818110156124485761243d600082612411565b60018101905061242a565b5050565b601f82111561248d5761245e8161232d565b61246784612342565b81016020851015612476578190505b61248a61248285612342565b830182612429565b50505b505050565b600082821c905092915050565b60006124b060001984600802612492565b1980831691505092915050565b60006124c9838361249f565b9150826002028217905092915050565b6124e282611758565b67ffffffffffffffff8111156124fb576124fa61180f565b5b61250582546120ca565b61251082828561244c565b600060209050601f8311600181146125435760008415612531578287015190505b61253b85826124bd565b8655506125a3565b601f1984166125518661232d565b60005b8281101561257957848901518255600182019150602085019450602081019050612554565b868310156125965784890151612592601f89168261249f565b8355505b6001600288020188555050505b505050505050565b7f4e487b7100000000000000000000000000000000000000000000000000000000600052601160045260246000fd5b60006125e5826116f5565b91507fffffffffffffffffffffffffffffffffffffffffffffffffffffffffffffffff8203612617576126166125ab565b5b600182019050919050565b60006060820190506126376000830186611e61565b6126446020830185611c3a565b818103604083015261265681846117af565b9050949350505050565b60006060820190506126756000830186611e61565b6126826020830185611e61565b818103604083015261269481846117af565b9050949350505050565b7f4175646974206e6f7420666f756e640000000000000000000000000000000000600082015250565b60006126d4600f83611763565b91506126df8261269e565b602082019050919050565b60006020820190508181036000830152612703816126c7565b9050919050565b7f496e76616c696420616464726573730000000000000000000000000000000000600082015250565b6000612740600f83611763565b915061274b8261270a565b602082019050919050565b6000602082019050818103600083015261276f81612733565b905091905056fea26469706673582212204da7b5696ca53983a2d96903178f0960eee062f31156883f3e52cc30f9a4df1864736f6c634300081c0033",
  "linkReferences": {},
  "deployedLinkReferences": {}
}